:020000040800F2
:1000000000000120C5020008CB020008CF02000852
:1000100041030008450300088D03000800000000AC
:10002000000000000000000000000000D5030008F0
:10003000D903000800000000DD030008E10C0008FF
:10004000F1030008F1030008F1030008F1030008C0
:10005000F1030008F1030008F1030008F1030008B0
:10006000F1030008F1030008F1030008F1030008A0
:10007000F1030008F1030008F1030008F103000890
:10008000F1030008F1030008F1030008000000007C
:10009000000000000000000000000000F103000864
:1000A000F1030008F1030008F1030008F103000860
:1000B000F1030008F1030008F1030008F103000850
:1000C000F1030008F1030008F1030008F103000840
:1000D000F1030008F1030008F1030008000000002C
:1000E000F1030008F1030008F1030008000000001C
:1000F000000000000000000000000000F103000804
:1001000000000000F1030008F1030008F1030008FB
:1001100000000000000000000000000000000000DF
:10012000F1030008F1030008F1030008F1030008DF
:10013000F1030008000000000000000000000000C3
:10014000000000000000000000000000F1030008B3
:10015000F1030008F1030008F1030008F1030008AF
:10016000F1030008F1030008000000000000000097
:10017000000000000000000000000000000000007F
:1001800000000000F1030008000000000000000073
:10019000F103000800B583B000F0BAF9384B394AD2
:1001A0001360394A1360394900E02146384B9942BF
:1001B0000BD20A684B6801F10C0488689842F4D9A4
:1001C0001168196004330432F8E72E4B1A68314B7A
:1001D0009A4200D0FEE72C4B1A682F4B9A42F9D175
:1001E000274B2E4A13602E4A13602E4B05E0002049
:1001F000106004329342FAD80B462B4A934204D241
:10020000194651F8082B5B68F4E7244B1B6813B9B7
:10021000234B1B6803B1FEE700F086F9694601A88D
:1002200000F022F9214C224BE41AA4100025AC4224
:1002300014DC204C204BE41AA4100025AC4213DC43
:100240000099019800F064FD05461C4C1C4BE41A13
:10025000A410002C0EDC284600F0E2F8144B53F8F2
:10026000253098470135E2E7134B53F8253098477E
:100270000135E3E7013C124B53F824309847E8E797
:10028000BABADECA0000002074000020F40300089F
:100290000C04000878563412325476987800002006
:1002A0001C0100200C0400081C0400081C040008A9
:1002B0001C0400081C0400081C0400081C0400089E
:1002C0001C04000808B5FFF765FF00BEFEE71EF03E
:1002D000040F0CBFEFF30880EFF309807146414A29
:1002E00010472DE9F04182B004468846124B5E6B00
:1002F0009F6B9D6A1B6B13F0020F03D00E4BDB6AE2
:10030000002B0CDB0D4800F0B7F8CDF800803B4621
:1003100032462946204600F00BF900BEFEE74BF6B8
:10032000AB6100F07FF90028ECD0034B4FF00042A6
:10033000DA6202B0BDE8F08100ED00E06417000869
:1003400000BEFEE71EF0040F0CBFEFF30880EFF3D2
:1003500009807146244A10472DE9F04182B00446D5
:100360008846084B5E6B9F6B9D6A074800F084F8D7
:10037000CDF800803B4632462946204600F0D8F8AA
:1003800000BEFEE700ED00E0741700081EF0040F49
:100390000CBFEFF30880EFF309807146134A104752
:1003A0002DE9F04182B004468846084B5E6B9F6B96
:1003B0009D6A074800F060F8CDF800803B46324661
:1003C0002946204600F0B4F800BEFEE700ED00E04C
:1003D0008017000800BEFEE700BEFEE700BEFEE795
:1003E00070470000E302000859030008A103000859
:0403F00000BEFEE766
:1003F40004950108000000207800002004950108FD
:1004040000000010000000107800002020010020EF
:080414000000001000000010C0
:10042000FEE7000008B503460C4A12685AB10B4AB1
:100430001068033323F003030344094A934206D8A8
:10044000064A136008BD054A06491160EFE700F04F
:1004500083FC0C2303604FF0FF30F3E77C000020A7
:1004600000FC00202001002001230360014B0B60F1
:10047000704700BF040000200FB400B583B004AB88
:1004800053F8042B01938021064800F097FC0028C4
:1004900003DD0146034800F037F803B05DF804EBD4
:1004A00004B07047840000202DE9F04385B0044675
:1004B0000F4643560BB10E461EE004252846214642
:1004C000ABBE0446384605B0BDE8F08314F9011B05
:1004D00004AA1A4402F8101C0133AB42F6D304AA52
:1004E0001344002203F8102C4FF00408E94640465C
:1004F0004946ABBE8046761B002EE3D03546102E13
:1005000028BF10250023E8E708B5FFF7CDFF08BD99
:1005100008B500F097F8024A024B9A6008BD00BF88
:100520000000000800ED00E008B500F0ABF808BDE1
:10053000F8B504460D4617461E462748FFF79CFFB0
:1005400021682648FFF798FF61682548FFF794FF68
:10055000A1682448FFF790FFE1682348FFF78CFF6C
:1005600021692248FFF788FF61692148FFF784FF6E
:10057000A1692048FFF780FFE1691F48FFF77CFF72
:100580001E48FFF779FF29461D48FFF775FF1D4CF0
:10059000E16A1D48FFF770FF216B1C48FFF76CFFF5
:1005A000E16B1B48FFF768FF15F0800F0AD115F4C7
:1005B000004F0CD11748FFF75FFF06991648FFF769
:1005C0005BFFF8BD39461548FFF756FFEFE73146A8
:1005D0001348FFF751FFEDE74816000858160008CA
:1005E0006816000878160008881600089816000893
:1005F000A8160008B8160008C8160008D816000883
:10060000E416000800ED00E0F416000804170008E6
:1006100014170008441700084C1700082417000896
:100620003417000883691A888A4201D00020704775
:100630000268033A012A03D802338361012070471C
:10064000002070470C4B1A6842F001021A6000212A
:1006500099601A6822F0847222F480321A60074A84
:100660005A601A6822F480221A60D960044B4FF055
:1006700000629A60704700BF0038024010300024CA
:1006800000ED00E0224B9B6803F00C03042B14D018
:10069000082B16D01BB11F4B1F4A1A6002E01D4BDE
:1006A0001D4A1A601A4B9B68C3F303131B4AD15CA3
:1006B000184A1368CB4013607047164B184A1A60EB
:1006C000F0E7134B5A685B6803F03F0312F4800FA6
:1006D00013D0134AB2FBF3F20D4B5B68C3F38813DC
:1006E00003FB02F30A4A5268C2F30142013252008C
:1006F000B3FBF2F3074A1360D4E7074AB2FBF3F205
:10070000034B5B68C3F3881303FB02F3EAE700BF04
:10071000003802400C0000200024F400901700086C
:1007200040787D0110B5002410E001222146002010
:1007300000F020F800222146104600F0FFF80022C9
:100740002146104600F048F90134E4B2072CECD9F8
:1007500010BD38B50546002409E045FA04F202F060
:1007600001022146002000F0E9F90134E4B2072C2F
:10077000F3D938BD022800F2D9800F2900F2D680C3
:10078000032A00F2D38010B4032A08D8DFE802F06D
:1007900002396B9D012814D018B1022821D010BC59
:1007A0007047634B18684900012202FA01F420EAFD
:1007B00004001860186811448A4020EA02021A6096
:1007C000EDE75C4B18684900012202FA01F420EAC7
:1007D00004001860186811448A4020EA02021A6076
:1007E000DDE7554B18684900012202FA01F420EABE
:1007F00004001860186811448A4020EA02021A6056
:10080000CDE7012820D080B10228C8D14A4B186812
:100810004900012202FA01F42043186018681144CB
:100820008A4020EA02021A60B9E7414B1868490081
:10083000012202FA01F420431860186811448A402A
:1008400020EA02021A60AAE73A4B1868490001221E
:1008500002FA01F420431860186811448A4020EA23
:1008600002021A609BE7012820D080B1022896D1AD
:10087000314B18684900012202FA01F420EA040011
:100880001860186811448A4002431A6087E7284BB1
:1008900018684900012202FA01F420EA04001860F5
:1008A000186811448A4002431A6078E7214B18689F
:1008B0004900012202FA01F420EA040018601868D5
:1008C00011448A4002431A6069E7012820D088B1A8
:1008D00002287FF464AF184B18684900012202FA1D
:1008E00001F4204318601868114402FA01F1014331
:1008F000196054E70E4B18684900012202FA01F40E
:1009000020431860186811448A4002431A6046E781
:10091000084B18684900012202FA01F420431860CC
:10092000186811448A4002431A6038E7704700BFD4
:10093000000002400004024000080240022803D8E0
:100940000F2901D8012A00D9704712B1012A21D0FC
:10095000704701280CD010B1022812D070471C48F3
:100960000368012202FA01F123EA010303607047E0
:1009700018480368012202FA01F123EA0103036027
:10098000704714480368012202FA01F123EA0103C7
:100990000360704701280BD010B1022810D07047B7
:1009A0000B480368012202FA01F10B430360704710
:1009B00008480368012202FA01F10B430360704703
:1009C00004480368012202FA01F10B430360BBE70C
:1009D0000400024004040240022800F2A8800F290B
:1009E00000F2A580022A00F2A28010B4012A39D0B8
:1009F0001AB1022A68D010BC7047012822D088B1F1
:100A00000228F8D14A4B18684900012202FA01F481
:100A100020EA04001860186811448A4020EA0202A3
:100A20001A60E8E7434B18684900012202FA01F412
:100A300020EA04001860186811448A4020EA020283
:100A40001A60D8E73C4B18684900012202FA01F409
:100A500020EA04001860186811448A4020EA020263
:100A60001A60C8E7012820D080B10228C3D1304BDA
:100A700018684900012202FA01F42043186018683E
:100A800011448A4020EA02021A60B4E7294B186830
:100A90004900012202FA01F4204318601868114449
:100AA0008A4020EA02021A60A5E7234B1868490031
:100AB000012202FA01F420431860186811448A40A8
:100AC00020EA02021A6096E7012821D088B10228A4
:100AD00091D1174B18684900012202FA01F420EA6B
:100AE000040018601868114402FA01F1014319600A
:100AF00081E7104B18684900012202FA01F420EA4C
:100B000004001860186811448A4002431A6072E7B2
:100B1000094B18684900012202FA01F420EA040096
:100B20001860186811448A4002431A6063E77047EE
:100B3000080802400800024008040240022803D8C6
:100B40000F2901D8012A00D97047CAB1012AFBD167
:100B5000012809D010B102280CD07047012303FAF4
:100B600001F1154B19607047012303FA01F1134B92
:100B700019607047012303FA01F1114B19607047A6
:100B800001280AD010B102280ED07047103101237D
:100B900003FA01F1084B196070471031012303FA81
:100BA00001F1064B196070471031012303FA01F17E
:100BB000034B1960C8E700BF180002401804024048
:100BC000180802400F4B1A6842F001021A601A68B6
:100BD00042F480321A601A6822F480221A601A687D
:100BE00042F080721A6008331A6822F001021A601B
:100BF0001A6822F002021A601A6842F080021A6033
:100C0000704700BF00380240032826D81F2924D887
:100C1000032822D8DFE800F0020A121A0F480368FE
:100C2000012202FA01F11943016070470C48036880
:100C3000012202FA01F11943016070470948036873
:100C4000012202FA01F11943016070470648036866
:100C5000012202FA01F11943016070473038024065
:100C6000343802404038024044380240054A136894
:100C700023F001031360002308321360043A136069
:100C8000704700BF10E000E0064B1A6822F0010236
:100C90001A601A6822F002021A601A6822F004022E
:100CA0001A60704710E000E008B520F07F400A4B62
:100CB00018600A4A136843F001031360074B1B686E
:100CC00013F4803FFAD0FFF7D1FF044A136823F0F2
:100CD0000203136008BD00BF14E000E010E000E074
:100CE00008B5084B1B78012B04D0074B1B6803B1D8
:100CF000984708BDFFF7BAFF044A136823F00403BE
:100D00001360F2E7040100200801002010E000E079
:100D100008B5FFF757FF00210846FFF775FFFFF7FB
:100D2000B3FFFFF7FFFC094C2368094AD05CFFF7CB
:100D300010FD7D20FFF7B8FF236801332360054ACB
:100D40009342F0D100222260EDE700BF0C010020A9
:100D5000A01700082E7D0100014B1868704700BFE6
:100D60001000002030B5141E05469BB0184605DA69
:100D70008B232B604FF0FF301BB030BD4FF402735C
:100D8000ADF80C3014BF04F1FF33234602930593F2
:100D90004FF6FF7300910491ADF80E3002461E9B92
:100DA0006946284600F072F8431CBCBF8B232B60B9
:100DB000002CE1D0009B00221A70DDE707B50093FC
:100DC00013460A46014603480068FFF7CBFF03B00D
:100DD0005DF804FB100000202DE9F0478E689E426C
:100DE00082460C469046994637D88A8912F4906F0D
:100DF00031D0256809696F1A6569022305EB45053D
:100E000095FBF3F509F101033B449D4238BF1D46B4
:100E1000530530D5294600F07DFB064650B90C231A
:100E2000CAF80030A38943F04003A3814FF0FF309C
:100E3000BDE8F0873A46216900F0FAFAA38923F465
:100E4000906343F08003A381266165613E44ED1BFE
:100E50002660A5604E464E4500D94E463246414674
:100E6000206800F0F0FAA3689B1BA36023681E446F
:100E700026600020DCE72A4600F0A6FB0646002894
:100E8000E2D12169504600F0F7FAC8E72DE9F04FAA
:100E90009DB0804603938B891D060C4616460FD5E0
:100EA0000B696BB9402100F035FB2060206128B947
:100EB0000C23C8F800304FF0FF30C7E040236361D7
:100EC0000023099320238DF8293030238DF82A3010
:100ED0004FF0010B37463D4615F8013B0BB1252B72
:100EE0003ED1B7EB060A0BD0534632462146404668
:100EF000FFF772FF013000F0A480099B534409936F
:100F00003B78002B00F09D8000234FF0FF32CDE9AD
:100F10000523049307938DF853301A932F46052227
:100F200017F8011B4F4800F033FA049BD0B9D906DB
:100F300044BF20228DF853201A0744BF2B228DF87E
:100F400053202A782A2A15D0079A2F4600200A25EE
:100F5000394611F8013B303B092B4DD9B8B10FE0B0
:100F60002F46B8E73F4A801A0BFA00F01843049066
:100F70003D46D3E7039A111D12680391002A01DB55
:100F8000079204E0524243F00203079204933B7835
:100F90002E2B0CD17B782A2B33D1039B1A1D1B6877
:100FA0000392002BB8BF4FF0FF33023705932E4D4D
:100FB00039780322284600F0EBF938B14023401B72
:100FC00003FA00F0049B0343013704933978274860
:100FD0008DF8281006227E1C00F0DAF9002838D09F
:100FE000234B13BB039B073323F0070308330393FF
:100FF000099B4B4409936DE705FB023201200F4624
:10100000A6E700230137059319460A25384610F84C
:10101000012B303A092A03D9002BC8D00591C6E725
:1010200005FB012101230746F0E703AB00932246AD
:10103000104B04A94046AFF30080B0F1FF3F81465A
:10104000D6D1A3895B063FF536AF09981DB0BDE840
:10105000F08F03AB00932246064B04A9404600F0F4
:1010600081F8EAE7CE940108D4940108D8940108E5
:1010700000000000D90D00082DE9F04791461F46F9
:101080008A680B69DDF820809342B8BF1346C9F81F
:10109000003091F8432006460C4612B10133C9F8DE
:1010A00000302368990642BFD9F800300233C9F8EE
:1010B0000030256815F0060507D104F1190AE36828
:1010C000D9F800209B1AAB4228DC94F84330226800
:1010D000003318BF012392062DD404F14302394690
:1010E0003046C047013020D02368E568D9F8002099
:1010F00003F00603042B08BFAD1AA36822690CBFD6
:1011000025EAE57500259342C4BF9B1AED184FF000
:1011100000091A344D451AD1002008E00123524637
:1011200039463046C047013003D14FF0FF30BDE8AB
:10113000F0870135C3E7E1185A1C302081F84300DD
:10114000224494F8451082F843100233C5E7012386
:10115000224639463046C0470130E6D009F1010940
:10116000D8E700002DE9F04301F1430C0C46097E5D
:1011700085B06E291746064698460C9A00F0B38053
:1011800022D8632936D00AD8002900F0B98058291E
:1011900000F0838004F1420584F8421032E06429B3
:1011A00001D06929F6D120681368050603F104010E
:1011B0002AD51B681160002B03DA2D225B4284F8CC
:1011C00043206F480A2239E0732900F09D8008D837
:1011D0006F2920D07029DDD1236843F020032360DC
:1011E00003E0752917D07829D4D1782384F84530C5
:1011F000644855E01368191D1B68116004F142052D
:1012000084F8423001238CE01B68116010F0400F1D
:1012100018BF1BB2CFE713682568181D1060280699
:1012200001D51B6802E06806FBD51B8854486F296E
:1012300014BF0A220822002184F843106568A560C3
:10124000002DC0F29580216821F004012160002B5F
:101250003DD1002D40F08E806546082A0BD12368D1
:10126000DB0708D5236962689A42DEBF302305F8A0
:10127000013C05F1FF35ACEB05032361CDF800809F
:101280003B4603AA21463046FFF7F6FE01304DD11A
:101290004FF0FF3005B0BDE8F083394884F84510C1
:1012A000136821681D1D1B6815600A060BD5CA0747
:1012B00044BF41F0200121601BB9226822F02002C6
:1012C00022601022B7E74D0648BF9BB2EFE76546A4
:1012D000B3FBF2F102FB1133C35C05F8013D0B4691
:1012E0000029F5D1B9E7136825686169181D1060F8
:1012F00028061B6801D5196002E06A06FBD5198033
:10130000002323616546B9E71368191D11601D6844
:1013100062680021284600F03BF808B1401B60607D
:1013200063682361002384F84330A7E723692A46D2
:1013300039463046C0470130AAD023689B0713D4F2
:10134000E068039B9842B8BF1846A3E701234A46CA
:1013500039463046C04701309AD00135E368039AD8
:101360009B1AAB42F2DCEBE7002504F11909F5E723
:10137000002BACD1037884F8423004F142056CE7CD
:10138000DF940108F0940108000000000000000054
:1013900001F0FF01102A2BDB10F0070F08D010F826
:1013A000013B013A8B422DD010F0070F42B3F6D12A
:1013B000F0B441EA012141EA014122F007047FF043
:1013C00000070023F0E80256083C85EA010586EA9A
:1013D000010685FA47F5A3FA87F586FA47F6A5FAD6
:1013E00087F68EB9EED1F0BC01F0FF0102F00702E2
:1013F00032B110F8013B013A83EA010313B1F8D18D
:101400000020704701387047002D06BF354603386D
:10141000073815F0010F07D1013015F4807F02BFA6
:10142000013015F4C03F0130F0BC0138704700BFF7
:1014300010B5431E0A44914200D110BD11F8014B72
:1014400003F8014FF7E7884210B501EB020307D814
:10145000421E99420AD011F8014B02F8014FF8E7F9
:101460008342F5D98118D21AD34200D110BD13F8A6
:10147000014D01F8014DF7E738B50546002945D083
:1014800051F8043C0C1F002BB8BFE41800F0D2F850
:101490001F4A1368104633B9636014602846BDE8DC
:1014A000384000F0C8B8A3420CD9216862189342B2
:1014B00004BF1A685B68636004BF5218226004604E
:1014C000ECE713465A680AB1A242FAD919685818CB
:1014D000A0420BD120680144581882421960DDD126
:1014E000106852685A6001441960D7E702D90C238A
:1014F0002B60D3E7206821188A4204BF1168526824
:10150000626004BF091821605C60C7E738BD00BF96
:101510001001002070B5CD1C25F0030508350C2DF9
:1015200038BF0C25002D064601DBA94203D90C2348
:101530003360002070BD00F07DF8214A1468214618
:1015400091B9204C23681BB9304600F063F8206045
:101550002946304600F05EF8431C24D10C2333604A
:10156000304600F068F8E4E70B685B1B18D40B2BDF
:101570000FD90B60CD50CC18304600F05CF804F168
:101580000B00231D20F00700C31AD3D05A42E250AB
:10159000D0E78C424B6816BF636013600C46EBE7E4
:1015A0000C464968CCE7C41C24F00304A04205D0D3
:1015B000211A304600F02EF80130CFD02560DBE74D
:1015C0001001002014010020F8B5074614460E460D
:1015D00021B91146BDE8F840FFF79CBF22B9FFF7DB
:1015E0004BFF25462846F8BD00F026F8A0420FD252
:1015F00021463846FFF78EFF05460028F2D03146D7
:101600002246FFF715FF31463846FFF735FFE9E779
:101610003546E7E738B5064C002305460846236003
:10162000FEF700FF431C02D1236803B12B6038BDD5
:10163000180100207047704751F8043C181F002B18
:10164000BCBF0B58C0187047537461636B2066723F
:10165000616D653A0A000000205230203D202025AF
:101660003038580A00000000205231203D2020254B
:101670003038580A00000000205232203D2020253A
:101680003038580A00000000205233203D20202529
:101690003038580A0000000020523132203D202509
:1016A0003038580A00000000204C52203D202025F0
:1016B0003038580A00000000205043203D202025EB
:1016C0003038580A0000000020505352203D202599
:1016D0003038580A000000004653522F4641523A13
:1016E0000A0000002043465352203D202025303878
:1016F000580A00002048465352203D20202530380B
:10170000580A00002044465352203D2020253038FE
:10171000580A00002041465352203D2020253038F1
:10172000580A0000204D4D464152203D20253038BA
:10173000580A00002042464152203D2020253038E2
:10174000580A00004D6973630A000000204C522FB4
:101750004558435F52455455524E3D202530385828
:101760000A0000005B486172644661756C745D0A32
:10177000000000005B4275734661756C745D0A0081
:101780005B55736167654661756C745D0A000000A6
:101790000000000000000000010203040607080921
:1017A000817F84807C7F79807D7F7E80827F838043
:1017B0007E7F7E80807F7D807D7F7E8083807F7F37
:1017C0007980787F7A807D7F7F807E7F7C807D7F3F
:1017D0007B807680767F7E808380847F8180827F1D
:1017E0007D80817F888084808880887F86808B7FD1
:1017F0008880827F808084808280897F89807E80CB
:1018000087807F807E80747F77807C7F7980797FFE
:10181000737F79807C7F7E807D7F7C807E7F7F80F0
:10182000877F7E7F7D80867F7B80837F7C807C7FBF
:101830008180827F7F807F7F7C80707F7780767FD2
:101840007980777F7C80827F7D80837F8C80927F90
:101850008F808E7F8B808C80737F5880477F18802D
:101860001F80097F16800F7F2C80297F347F5F8047
:10187000527F86804E7F5780407F7380A47FB980DF
:10188000E57FE980EF7FE580E17FE480FF7FEA800C
:10189000D77FB47F9C80977FC37FBB80EA7FD08057
:1018A000D57FC780B180777F2E80527F448048806B
:1018B00010801B7F09801B800D800D801B7F0E8098
:1018C00005800580157F1480197F0280197F3D8077
:1018D0005D7F7680B57FA8809B7FD380DB80ED7FA6
:1018E000FF80F87FE880F97FE880E87FFF80FF8055
:1018F000E47FD580C180997FAE80BA7FCD80FB7FA9
:10190000EF80C57FD2809D7F7C80567F6B80648016
:10191000597F84804D7F5580197F29802080437FA7
:10192000528058805C7F1080007F0080097F00809B
:101930004B7F4F7F5D80517F36802F80377F2B809C
:101940003E7F7980717F777F6E80767F69805D7F53
:101950005A808380A480907F9C8085809A7F958028
:101960008A7FE680EC7FF480E07FD980B67F937F2A
:1019700094808D7FC280E67FE480C780C280A07F94
:101980008A808980747F8680A67F86808F7F85800D
:10199000667F2480397F78805480607F677F6E8087
:1019A0006E7F82809C7F9480B4809680887FB88090
:1019B000AD7FC080AB7FC480C87FDF80EC7FF080CC
:1019C000FF80FD7FF180E37FFF80FC7FFF80FF7F52
:1019D000FF7FFF80FF7FFF80FB80F97FFF80F48027
:1019E000FF7FEB80BD7FBB808D7F7B80657F7680B6
:1019F0005B7F4280357F0080007F00800080008018
:101A000000800280087F118006800280017F0380B1
:101A1000007F00800080007F0080007F0D801B80A1
:101A2000367F40803A7F4080387F2E802A7F2D800D
:101A3000497F3780317F597F7780857F60807C80C8
:101A40007A7F8C807B7F8580BD80C680CC7FBA808A
:101A5000C67FC280D27FCB80C37FB680B180AE808C
:101A6000B780BC80DA80BC80C180FB80E280D380FC
:101A7000C080C080CB80D37FB880AF7FBA80C17F69
:101A8000BA80C480E780F680EB80E580D880C37F91
:101A9000D07FC880C17FAE80BC7FC67FBF80BE7F45
:101AA000C980E37FB180BD7FA380B27FA8806F7FB4
:101AB0007780717F718053805A7F5D803B7F2E805D
:101AC0002280077F0880007F0080017F1D80197FB2
:101AD0001C802A7F1E803F80508058803080248068
:101AE000107F0080068006802E803C801C80158040
:101AF00017804A8064804A801C7F06803B805F801C
:101B00008580517F47808F7FAC809C80697F648017
:101B10008D7F9F80677F4C808A809A7F7E80A77FA1
:101B2000B680CB7FA980A080AD7FAB80997F63809A
:101B30006380B87FC9807B7F8A80B280E67FA9807E
:101B4000AF7FCF80C57FA080747F97807A7F7B80B6
:101B50008D7F7A8080807B7F7E80777F5C805D80D8
:101B60004F7F3B804E7FA180A37F7E80977FBB808D
:101B7000BD7FAA808D7F93809E7F73806B80618004
:101B8000647F8B80957F8F808580987F9F808F7FFB
:101B90008E809E80757F4680497F9C80B77F848041
:101BA000937FAB80D0809E809D808E7FBC80DD7FC8
:101BB0008E808C7FC280F280CA7FD480E97FDB80F8
:101BC000D97FDE80B17FA680B480A77FA680D58034
:101BD000EA7FC980E880FF7FFF80FF7FE980D580B2
:101BE000FE80FB7FC980CE80E07FE680D47FE180ED
:101BF000C77FB780D47FBB808C7F69807B7F678005
:101C0000687F8D80827F6880737F79804E7F33808C
:101C10003B803A7F2C80187F0080067F05800C7FF8
:101C20002380187F1D8055806380237F0080167F6E
:101C30000C8000801E7F4C80317F3080657F647F08
:101C400054804D7F4D80347F3B802B7F12802680D7
:101C5000357F2E80257F3780387F3C803D7F1A80FE
:101C6000047F00800080007F038033801E7F3280ED
:101C70005A7F5A80637F5E8054805080687F57808F
:101C8000487F6380877F85808C80987FAC80BF7F12
:101C9000BD80AC7FB080AC7F9980A180C67FEA8098
:101CA000D17FEB80FF7FFF80FF80FF7FFF80FF7F82
:101CB000FE80F37FDF80EB7FFF80F67FF780FF8081
:101CC000FF7FFF80FF7FFD80F880EB7FD480D28094
:101CD000E87FFF80F47FF980FF80FF80F180D57F6F
:101CE000CB80C980C480AE7F9F80AC7FC180BD7F28
:101CF000B77FC080C47FBF80B180997F95807D7F92
:101D000061805680657F72804D7F5C807D80857F9D
:101D10006B805880597F5D803F7F1980257F488088
:101D20005080418052805F7F6480627F5380397F22
:101D30003580217F0E8014803C7F44803280507F2C
:101D40006280637F5680457F37803C802C7F068091
:101D50000D7F2F80297F1280177F248021801D7F97
:101D600010800580027F00800080007F0380007F5C
:101D700000801480257F2C80257F17801E7F29807E
:101D8000277F26803E80657F7080737F7E8096806F
:101D9000A07FA280967F9D809E7F85808480957F96
:101DA000C680BA7FB580E07FF380EF80E17FE58079
:101DB000E37FE680DF80C77FDB80F180F27FEA800F
:101DC000F77FFF80FF80FC7FEE80DE7FCC80AC80E1
:101DD000A57FBE80E57FDB80D07FEF80EE80E17F56
:101DE000CE80C97FC080B97FA680917FA680BB7F4F
:101DF000B480B47FC680D27FD780C57FBF80BB7FD1
:101E0000A480877F8880A07FBD80BC80C17FDF8069
:101E1000E080DC7FCD80C380C07FB6809F7F8580DF
:101E200088809F80A07F9480987FA07FAD80A37FD3
:101E30008980857F7D806980548054806C80907F0C
:101E400083806C80967FB580BF7FAC80977F9580C4
:101E5000937F7D805B804A7F608071805A7F59804C
:101E60006680797F718056804A7F4C804880267FCB
:101E70000880097F2180347F1D800F7F2F803C7F69
:101E800037802480267F33802B7F15800080008060
:101E9000008018800B80008010802780377F2A8088
:101EA0002B7F2A802C7F1380008000800080108090
:101EB0001C8000800D803F8052804F804180467F93
:101EC0004A80407F27801D7F2A80517F5C804E7F23
:101ED0005880777F8D808880827F7E80857F7B8021
:101EE000637F3F803A7F4C80657F75805680667F38
:101EF00092808C7F7C806D7F7680877F83806E80F0
:101F0000637F7B80A17FB180A280AF7FC980DF80AB
:101F1000D97FC580C47FCC80C67FA6808A7F85801C
:101F2000997FBA80CB7FB480CC7FFF80FF7FF98020
:101F3000EA7FFA80FF7FFF80EF80DE80E57FFD8013
:101F4000FF7FF380FD7FFF80FF7FFF80FF7FFF80AB
:101F5000FF7FFA80E380CB80C47FCF80E67FFD8067
:101F6000E97FF380FF7FFF80FF80F67FF980F480B8
:101F7000DF7FAE80917F9480A080A77F8C80897F57
:101F80009A80A880A37F8F808F80958089807180C0
:101F90005A7F53805E7F6A807F807D80797FA780B3
:101FA000BA7FAC809D809F7FA480A17F89807B8049
:101FB0008080897F8F80827F85809C7FB180AC7F8D
:101FC0009C809B80A37F9C80827F6780567F50800F
:101FD0005D80687F6F80597F72809E80958085804C
:101FE0007D807D7F7880647F4D80467F49805280F0
:101FF000457F3B80427F53804D803C7F28802980F5
:10200000237F0C80007F00800080007F00800480A0
:102010000A7F0980307F3A80367F3A80447F48804B
:102020003B8026801E7F1E80227F2C80207F2B807D
:10203000427F4D804C7F4980577F62805780437F2D
:102040003C803480257F2D803C7F49803A804D7FC5
:102050006E806C7F6480657F73806B805C80517F55
:102060005780647F74807080707F8A809B7F9D80A2
:10207000947F90809D7F9980877F77806B80577F4A
:1020800050806480797F7480697F8E809A80897F98
:102090007780747F6F80627F4280297F2680247FD3
:1020A00024801A7F2F80497F4D804A80497F558048
:1020B0005D7F50803680357F3A80277F35804B802A
:1020C0005F7F51805F7F88808780777F6B80727FA2
:1020D0006F7F6380507F56806A7F8280838082809A
:1020E0009580AA80AC7FA580A080A77FAB809F80D1
:1020F000937F8D80867F7F809C7FC480CC7FB680DD
:10210000D47FF480E37FD180C57FB580A780897FAD
:1021100072806D7F7580837F8180917FA980B08080
:10212000A4809E7FA2809D808E807680687F65805F
:102130003F7F45807E7F9F808F7F9280CC7FE9802C
:10214000E67FCA80B37FB780C17FAA80967F9980DF
:102150009D80A080AC7FC780DD7FEF80F780ED7F22
:10216000E980E47FD080BD7FC380C580B47F9A8042
:102170008C809B809E80AF80C880EE80FF80FA803C
:10218000ED80E380F580E380A08080809180918065
:10219000918080807E809980C47FD480BE80BE7F05
:1021A000C780BA7FA080867F73807780747F5680D7
:1021B000497F6380757F5E805680B180EC80C680E9
:1021C000AF80A780B080B6808D7F47804C7F7D80B8
:1021D000847F78807F7F9580AB7FCA80BF7FA17F1F
:1021E000AA80A47F8A80797F657F6380637F628015
:1021F000557F46805C7F5880347F6D80C27FB4807D
:10220000967F8B808B809E7F9080437F1E80537F44
:102210006C805E7F5380597F78809E7FA880767F18
:102220007380827F6A80547F47803E7F3E805680E5
:102230005380367F2480297F3880797F9880907FF3
:102240009C80907F7880827F9180527F2E80597F02
:102250006E80718076806D7F7B80B580C5808C803C
:10226000837F90808E7F7F806A7F648069808A7F91
:102270008B806B7F5280257F4F80D280D07F95806E
:10228000AD7FCB80CB7FC180A57F76807A7F9D801C
:10229000977FA0809F7F9080947FB880D180AA7F15
:1022A00095808C7FA380B37F9880787F75808C7FAA
:1022B0007D80647F327F2580817FA180B280AF8066
:1022C00074809280BB7FBB807A8053807D808980C0
:1022D0009E80927F6F807A7F86809B808080897FBE
:1022E0009480787F9C80A880AE7F94808B8085804E
:1022F0007A805B8039809280A380A37F99808280DE
:10230000BD7F9A809F80A27F90809C7F8280B87FD3
:10231000C880AF7F99808B7FB7809B80917F7A80C8
:102320007680B07F9B809E7F9580937F7D80567F57
:102330003080407F8E80777F84807B7F6180588073
:102340004D7F85805C7F3D805E807680977F7C803E
:10235000827F7780797F7680407F60804B80487F66
:102360005580637F8180637F5780547F38801E7FD4
:102370005A806180617F65803D7F3B80377F5180DF
:102380001D7F0180227F3380727F43804980698076
:10239000617F5B80227F47803A801F7F2380317F6F
:1023A0004580337F2380147F0080047F4380437FF8
:1023B0004C80517F3A80247F20804980187F08809C
:1023C000107F25804D7F3D80487F20804480677F3F
:1023D0005880447F3580757F6F806D7F74806B7F00
:1023E00070803D7F25806A7F9680977F73806C7FA9
:1023F0008680767F9380787F72808F80817F9780C0
:10240000917FB2809E7F89809E80937FA38082800F
:10241000847F8E80987FAC80927FAD808C7F64803B
:10242000B07FDC80D37F9A80947FA480967FAF803A
:10243000947F887F84808C7FA580A780C47FA880BC
:10244000A17FA780A77FB5808F7F9B809B7FAF8078
:10245000B77FA2809E7F7C80A07FC080D27FD28009
:10246000B17FA780977FB680D47FBD80A780A77FEC
:10247000CC80CA7FD180D47FBD80BE7F9B80B27F5D
:10248000AC80AA80A480927FAF80A97FA580858040
:10249000927FB680C17FC880B07FAA80987F9980E4
:1024A000A87FA080A780937F91808E809F7FAC8043
:1024B000947F89806F806F7F7E80757F6380697F66
:1024C00076805E804C7F46805F7F77806D80767FF0
:1024D0006780667F56804D805B8061806A7F59800F
:1024E000617F6980817F88807F7F82806E7F6D8041
:1024F0005F7F5B806080527F4E80417F3A7F378074
:102500004A7F6680687F607F5280517F5A80517F0A
:1025100051805B80577F4F805B7F6A80777F7B80B5
:10252000757F74806E80707F6780667F6E806C7F41
:102530006380587F54805780607F6480607F5680BE
:1025400052804C7F49804A7F4E80497F418047803E
:102550004D7F4B804B7F5080567F4F804F7F578001
:10256000577F6B806880627F75807A80717F6F8013
:10257000787F7F807D7F7280737F7280737F7680AB
:1025800076807A7F81807C7F7A8086808E7F8F8044
:102590008E808E80937F9780997F9A809E7FA38084
:1025A0009E7F9A809B7FA080A380A07FA080A17F38
:1025B0009F80997F97809880967F9680A07F978054
:1025C000937FA680A77F9D80A07F9F809A80957F24
:1025D0009080917F9480967F8F808A7F8F80977F75
:1025E00092809080977F9B809D7F9E7FA380A87F15
:1025F000AB80A77FA480A980AF7FAC80AD7FB28085
:10260000B480B27FAF80B27FB380AF7FB180AE7F46
:10261000AC80AC7FA780A380A980B580A8809E8075
:10262000AE7FB380A880AD80B67FB380B37FAD802E
:10263000AB80B37FB880B67FAF80B07FB580AF800E
:10264000A57FA580A57F9E809880977F9580957FA8
:1026500090808A7F878082807B7F74807B7F7F8071
:102660007E7F7680757F7580777F7980797F7B80AC
:102670007980778076807A80807F85807D80767F84
:102680007A807E80797F7980777F788075806E7F91
:1026900067806B7F6C7F6680617F6080637F618015
:1026A000617F5F806380617F6180607F6480657F20
:1026B0006880617F62805E7F6180627F6580637F0A
:1026C00061805E7F56805480527F5780527F508059
:1026D0004C7F4D80497F4880447F4780417F3E80CA
:1026E0003D7F4A80467F43804E80517F4B804F80A4
:1026F000597F5380597F59805A805A80687F6680FD
:10270000687F68806D7F6F80737F728078807D8046
:102710007C807980797F7F807B7F797F78807F7FE5
:102720007B807B7F7C807D808080847F8080827FB7
:102730008480868087808A808B808A7F8B808C8053
:102740008D809380947F92809780967F9180917FF7
:102750009280907F8D80847F83808B7F8880818032
:10276000817F80807F7F7680797F7980767F788097
:102770007E7F7E807E7F8080827F84808380887F52
:102780008E80927F9380957F9880977F9580997FA8
:102790009B809C7F9B809A80967F9680947F96807A
:1027A0009980967F96809480927F9480977F968080
:1027B000998096809080937F9580917F9380987F79
:1027C0009780998096809F8095809580968096804E
:1027D00099809A7F9880977F95808D7F8D807F7F6D
:1027E0008B80847F848079808880807F6F80707FF9
:1027F00073806D7F72806C80748084806B7F7C803E
:102800006F7F6C80707F71806D7F7580627F7F804D
:102810008180827F99808A7F8680917F8880807F77
:1028200077806D807B7F6680717F76807B808880FB
:10283000957F8980937F85808480807F71806F8081
:102840006F8073807A808B809B7F9A80947FA58035
:102850009D7FA3808F7F8580777F73807080748059
:10286000717F7880797F7B807E807E7F8480707F9F
:1028700073805E7F5D805180587F5A805B7F5D8072
:10288000717F6F80767F81807E8087806E7F73808E
:102890005F80638068806D8062806C7F6380777FFB
:1028A000807F7E80897F74806E7F6D806D7F6D807C
:1028B0006D7F6280718060807C807C807B7F818086
:1028C000807F8280767F7780797F71807880827F39
:1028D00084807B8080808580927F8F8086808280CC
:1028E0007D808E7F7E80867F7D8088807F7F8380D5
:1028F0007B7F7980757F7880707F717F7580707F36
:10290000707F6D806E7F6D807480767F74806B8049
:102910007E7F7180797F71807F7F7880807F7E80ED
:102920008280757F8080807F8780827F7C807D7FB2
:10293000757F81807580837F7980857F7B808580AE
:10294000747F81807980827F7E80847F8180868091
:102950008C7F93808D7F8A7F9A808F7F9380887F02
:1029600094808F80938092809B80927FA2808F7FC3
:102970009380857F8F8089808A7F8980887F85800A
:1029800084808F7F888083807B808C7F8780967F08
:1029900083808C807D7F8D8080808980827F908005
:1029A000917F917F94807F7F91808C7F97808F80B3
:1029B0008C7F8380887F8980977F87808F7F8980C5
:1029C0008480837F87807C7F78807E807F7F80800B
:1029D000727F87807C7F82807D807E807F80808008
:1029E000877F807F8180837F86808280857F8480CF
:1029F000827F7C80797F8180747F73806B80707F21
:102A000068805F7F708072807F7F7680767F6B804A
:102A10006B7F7180797F75807480787F6C807C801B
:102A20007E7F7C807E807C7F7D80757F75807D80D1
:102A30007B7F7C807B7F778076807A7F7880887FC1
:102A40007F807C7F70807B7F7A807480777F7880C6
:102A5000697F6E80767F6B807A7F7380787F6880F5
:102A6000797F7580707F7480807F7A80777F7D80AA
:102A7000857F78808480877F7B80847F7E807E8056
:102A8000757F8180737F72806A7F7B80687F6E80B4
:102A90007080737F6D80677F75806B806B806D7FCA
:102AA0007580747F81807D7F8880877F96808A7F14
:102AB0008E80887F8B80827F87809680817F7D80DB
:102AC000837F8C80887F8B80867F89807C7F8780D6
:102AD0008A7F8E807E7F8280867F8C808E808F80B2
:102AE000917F8E80907F91808F809080937F8F8068
:102AF0008C7F9580977F82808D80927F90807F8071
:102B0000917F8D80847F7F808B7F84807E7F7D809E
:102B1000837F7580777F7D806F7F77807C7F7C80EF
:102B20007180797F7A8070806C7F7E807C7F7980F5
:102B30007A808E7F7F8088808D7F9780897F958047
:102B4000887F8880847F8880867F7980867F778071
:102B5000828078808E80757F7D8077808080707F96
:102B60008780817F7C807C80837F8980817F90804B
:102B70008C7F9280847F90808180898085808A800C
:102B8000797F84807B8072806F807E806F7F6E8093
:102B9000747F7780727F6880748069806C806A80BF
:102BA00078806A7F6E806C7F6D80677F7C806D7FB0
:102BB0006C806D7F73806E7F6C80797F7480757F91
:102BC00073807D807B7F76807E80847F7F80818024
:102BD0007D7F7E807C7F81807C7F82807D7F7A800C
:102BE0007C7F8180797F78807E8082807F7F8780F4
:102BF0008E7F8D80827F8980967F928091808E7F6C
:102C0000968091809A7F97809B7F94808F7F888029
:102C1000897F88807E807A807F7F7C80767F7D80C0
:102C2000838076806F7F7480797F7A8077807F80E1
:102C3000777F7180667F7380797F7F80787F7380F4
:102C40006F7F71807C80847F9180887F8E808D7F74
:102C50009180927F92808D808C7F7980747F738049
:102C6000627F56805E7F77807B80817F8580897FD1
:102C70008980927F9C809C7F8C80927F9A80917FBC
:102C80009080927F8F8090808B808F7F8D807D7FE2
:102C900066806B7F928093809380878081807C8028
:102CA0007E7F8880847F6D80657F797F758081805D
:102CB000787F7980777F7D7F7D80747F7180507F82
:102CC00044806D7F928087808780827F89808C7F1F
:102CD0009D808C7F757F6B80857F8E80867F8280D4
:102CE000647F78807E7F8F80807F6E805D8047806C
:102CF000757F9580807F6E807A7F87808B7F9880BC
:102D0000868069807380927F9C808E7F8480737FB1
:102D1000828095808E7F7780687F6E80527F6C8006
:102D20008A8074806C807F80967F89808A7F808093
:102D3000617F6B807F7F7F80757F70807C7F8380E9
:102D400098808A7F79806B7F7380557F58808980D7
:102D50007B807480897FA3809180937F8E807F7F2A
:102D600078808B808D7F8A80867F88808F7F988017
:102D7000907F7E807D8082806D8050808C7F93806C
:102D8000857F8880997F8D808E80A17F87807B7FE3
:102D90007F808F7F8C808C7F8680827F96809B7FD8
:102DA00089806E7F74806A7F4E80797F9080738087
:102DB0006E7F89808B7F7B808C807B8068806E7F3C
:102DC000788073806D7F7E807C7F8A808F7F838018
:102DD0006A7F7180737F4D8058808D7F8280787F7D
:102DE00081808F7F8680927F9980727F7880877FB5
:102DF00093807A807E7F8280887F968097807D8096
:102E0000748085806C805A7F8680967F81808E7FDB
:102E10009A80967F8680967F8280737F84808E8062
:102E20008680777F8880857F8980937F80806D8092
:102E3000777F6E80407F547F87807F7F7780827F1F
:102E40009280837F83807D7F66806980747F7B80B2
:102E5000707F7C8080807F7F8C8089806F7F6C809A
:102E6000767F6080457F75808E807B7F8080937FBA
:102E70009A80847F9680818075807680877F848029
:102E80007B7F8980897F9480957F8D807D7F808006
:102E9000817F5F805F80977F8E80817F8E80A57F1E
:102EA00097808F7F9080768076807D7F8C807F7FFB
:102EB0007980847F8B80967F8D807F7F75807980FD
:102EC000647F4980737F8A80787F7A808B8091804D
:102ED00083808380767F6C80777F80807E7F6A802E
:102EE0007D7F83808F808E7F7F80787F7880797FE1
:102EF0004D80537F8B808E80847F8A809F7F9C80D3
:102F0000947F9E807C7F77807E7F8E80807F79809B
:102F10008A7F93809D80967F8580797F85807D7F65
:102F2000528062809C7F8B807F7F8B80A580907F8A
:102F30008F80917F70807580817F8E80777F7A808F
:102F4000837F85808C80897F74806B7F76805D7FB6
:102F50003F80727F8B807D7F7980907F96807B7FA2
:102F60008980737F6D80677F8180847F73807A7FA3
:102F70007F8088808C7F88807A7F7780757F538080
:102F8000487F8A80907F7F807C809B7F96808A7F2D
:102F90008C807A80707F77808D7F8680797F848037
:102FA000927F97809480807F7880747F7A80467F3C
:102FB00060808C807D7F7880847FA4808D808A7FF4
:102FC00088806E7F6E80758081807780787F818039
:102FD000827F8B808C7F877F7F808B7F5E803D7F31
:102FE000658094807F7F54806B808680858082801E
:102FF0007680757F75809380A07F78807D7F9A80B2
:10300000AA80AA7F9B80827F62806E7F5A80347FF5
:103010007D808B7F75807A80A57FA980A27FBB7F12
:103020009A80907F8B80787F73806E7F73807F80A3
:10303000A27F9780797F9980957F867F53805D7F7F
:103040009880A1807C807480A57FA6808D7F8580FC
:103050007280697F7A80847F65806C80987F9080A1
:10306000967F9C80A3808D7F84806F7F3580487F92
:103070008E80767F6C80827FA0809F7F8580997F05
:1030800078806F807B7F9780797F6E808A80997F40
:103090009480817F7B80697F8D80667F30805F7FB9
:1030A0009D808A7F71809280A7809C808F806F7FB7
:1030B0006A7F7E806F7F72806B7F8C80927F8A8038
:1030C0008C7F83808B7F7B806D7F58804A7F74806C
:1030D0009280737F7A809080957F8080897F8580C1
:1030E0005F8071808B808480678085809B7F9C80DF
:1030F0008E80707F6C807F7F8780447F3C808F8054
:10310000A17F77806D7F9380A77F8980867F7F8076
:103110007D7F7F80808083807D7F8E80857F8280A1
:10312000887F86807280737F8380617F5080887FF4
:103130009B80797F7580897F917F8780877F75806D
:10314000757F85809C80807F678084809080907F61
:103150006E7F70807E808080777F4B80577F9980E4
:10316000967F6A80757F9580937F80808880827F3C
:103170007A80877F9680817F75808A7F8F8090801C
:1031800080807B7F7F80927F89805380527F9C806C
:10319000A4806F7F74809C7FA8808C808D7F7F80CF
:1031A000837F928095807B806F7F988096808B80D4
:1031B0007E80867F8B80967F8E805A7F4580887F39
:1031C000A0806A7F667F8D80A77F8C808D7F827FC5
:1031D0007880867F8E8076805B807B7F8C80827F0C
:1031E0007280717F81808E807C7F4C80457F85805E
:1031F000917F66806180867F9D808F80827F7880CE
:10320000797F7C8081806C7F6280797F9080927FE3
:1032100082807E8084808A80807F5780377F708024
:103220009F7F77806180877FAA80A27F8F807D7F4C
:103230007D808B808A7F7680627F88809F7F8A8076
:103240007F7F7C80907F8880797F61803F806F80E6
:10325000A58082806B808880A2809D808880767F18
:103260006D80827F8E807B7F63807E80A080928055
:103270007D807280857F8F807B7F6480447F617FCB
:10328000A78091805C807880A97F99807D807A7FFB
:103290007B808F7F9580907F7C807E7FA380927FD4
:1032A0007A80707F7A808E7F8780787F55805C7F80
:1032B000A680A680657F70809F7FA480877F7780AF
:1032C0007C7F86809E7F9680777F8080A17F96809E
:1032D0007C7F7580788090808F7F81805F7F528037
:1032E000907FA8806B7F5D809280A3809280818098
:1032F0007C80867F9B80997F7D806C7F8B80918096
:1033000076806E7F73808B7F9980897F74805880F0
:10331000647FA880887F4780687FA1809F7F8080AE
:103320007D80857F91809F7F868065807B7F978071
:10333000857F74807A7F84808C80887F7A805B80B0
:10334000527F85809E805D7F5C80997FA8808F8082
:10335000807F7E808780997F8780647F66808B7F77
:103360008B807B7F7B807E80867F8180777F67807C
:103370004F80657F99807A7F4F80787F9E80938091
:10338000817F7B80767F8980997F70805D7F81805F
:10339000967F8880737F7480797F8480847F748037
:1033A0005F8055807E809D7F6A805F7F8C80A07F5C
:1033B0008E7F7A807A7F7A809A7F96807780757FF9
:1033C00091809C7F86807A7F7980817F8E80857FC7
:1033D0006D80597F65809380937F6A806A7F9B8030
:1033E0009B80807F7D807A7F8780A27F9580737F9E
:1033F00073809280907F80807B7F71808280947FB9
:103400008980687F5F806B7F87808E80697F618025
:103410008C7F9D8086807F7F7D80837F9E809D7F47
:103420007880737F8C80897F7C807E7F74807C80B5
:10343000957F9180747F6C806A7F6D808E7F7A80AB
:10344000617F7980977F8E808480837F79808B7F76
:103450009D80847F6D8080808C80867F8880807F47
:103460007380847F91807C7F6A80677F6A80877F9A
:1034700089806C7F6F808A7F8D80847F8080708060
:103480007B7F8D8090807A7F7B80897F8D808F800D
:10349000827F76807B7F8B80807F7580727F6D805E
:1034A0006F7F8A808C7F76807A7F8780837F7F8022
:1034B0007E7F73807B7F86808980837F8680817F0B
:1034C0008380897F80807C7F7E80857F8580887FE8
:1034D00084807A7F7880847F868076806D7F758017
:1034E000807F7F8076807A807F807D7F8180847FEF
:1034F0008080817F7D80827F88807E7F82808B7FBD
:1035000084808280837F7E807D7F7580787F7A80D3
:103510007780737F7680807F7E8078807A7F7980E5
:10352000747F79807D80817F80808A7F8E80897F93
:1035300087808D7F888086808A80847F8180837F5A
:103540007D807A7F8780867F7C80787F7A807C7F91
:103550007F80807F7F807B7F81808580837F878065
:103560007E7F8180897F89808080827F8980877F3C
:1035700089808680827F7C807C7F7880797F808054
:103580007A7F6C8073807E7F7C80797F78807A8080
:1035900078807E80808082807B8080808880878029
:1035A000827F8580847F80808A7F848081807B7F0A
:1035B0007880777F7E808380787F708077807C8042
:1035C000767F7C80777F7780807F7F80827F898015
:1035D0007F7F7E8089808A7F83808280877F8580CD
:1035E0008A7F89808580847F7C807E80747F7080E4
:1035F000817F7F807280797F81807D7F81807A80EA
:10360000787F808082808680867F8980827F8680A6
:103610009180857F8080857F878089808C80887F6E
:103620007D80778078806D807380847F7480657FF3
:1036300076807D7F75807F807B7F7B80817F8780A8
:10364000897F85808580817F8C80927F8380827F47
:103650008980867F87808B7F7E807C807F80737F60
:103660006C80687F7880807F70806A807780787FC8
:103670007D808180787F7D80897F8C8086808B7F34
:103680008380857F9480907F7A807F7F8680837F10
:103690008F808C7F75806F806C80587F76808C7F68
:1036A0006E8067808780878089809E7F8180778019
:1036B000987F96807E7F8080817F7B80997F9B80B2
:1036C000797F828093808B8083808E8074806C7FF2
:1036D0007480497F5C80937F7B8062808A7F90804A
:1036E00085809F808A7F5F80827F937F7280707FDA
:1036F0008080727F8C80A47F77807B7F92808D7F9B
:1037000088808A80757F7180897F6C802C804C8056
:103710009D80878075808B7F7E80967FBC80817F37
:1037200055808A7F8E806E7F7D7F6C80687FA280CF
:10373000BD807B7F7E80A57F7F808B7F8F80647F35
:103740005780687F3380327FA180987F66809B801E
:10375000A5808E80AF80A4804680717F95804B7F4E
:1037600066807F7F7A809980C97F8D80777FAC80EB
:103770007B80707F8180627F658073806C7F4480F6
:103780002B808D80C68090808A7F858083809D80FD
:103790008B805780547F8680787F7F80827F748083
:1037A0009E80CF80AB806180797F6D80677F8780CE
:1037B0007A80657F7E80797F3D80367FB980A97F62
:1037C0007180A27F8180747FA180997F49808C7FE6
:1037D00095805C7F5E807A80937FBC80EE80BF7F27
:1037E00064806C80527F4B806880817F9880A1804C
:1037F000747F2C80827F9C80637F7180AB7F9E80F2
:10380000B980A47F4280107F77805F80857FCC80E5
:10381000C480D77FCC80887F1B803E7F5380898087
:10382000A97FB180A380977F6C80557F2580247FFE
:103830009D80EF7F9C80967F6D806B7F81805F7F16
:1038400057806E7FBF80B67FA2807A7F7A80787F34
:10385000AB809E7F7C808480A07F6D807C7F648035
:10386000638080808B7F98805A7F4880AC80987F6F
:103870004680777F6B809E7FBC80967F5580688076
:103880007680717F6380877F9980B67FC280AC80AD
:103890005B805A80677F5080807F8380947F918097
:1038A000847F2E801C7F8D80B77F7480A080827F74
:1038B0008D7F9880727F4A80307F7580867FAF8051
:1038C000AD7F96808B7F8D80837F59805A7F6B8000
:1038D0007C7FA180A97F9280877F7A806E7F5A80CB
:1038E0003980277F8080CB80A37F9F808E7F8280DE
:1038F000957F7580597F4180667F97809E80B980D3
:103900009F7F9680907F9C7F7980567F6C80677FB9
:103910006B80967F9C808880997F7380607F3280E7
:103920002F7FA87FB6809B7FA3807F7F817F7F8052
:10393000817F57804F7F86808780A180B57F92806E
:1039400098808C7F8A80797F6480857F7380807F78
:10395000888096808C7F6D804D7F1A806780C37FC2
:10396000BB80A97F7B80817F6E807180808060803A
:10397000667F8080A87FBD809E80867F7D806E80F0
:103980008A807580817F75806E7F8E809A7F9F8010
:103990007F7F7380627F54802B805880BD7FC98079
:1039A000B57F88806C7F5B80557F6F8077806F7F6D
:1039B000838090809780B780997F87806E7F6880B2
:1039C0007C80747F8A7F76807B7F7F808F7F9180F1
:1039D000837F79806F7F53802480617FBE80C87F22
:1039E000A8809680697F5780547F6C807A806C7F36
:1039F00078809A7F9C80B58097807B806D7F568091
:103A0000857F84808E7F85807C80708077808780B2
:103A1000857F758057801C7F5880BC7FCF80D07F8A
:103A200090806080427F43808080937F7F80947FFE
:103A30008B809F7FA980907F7E805680607F7F8073
:103A40008D80A1808A7F84807580747F78807A7F62
:103A50007980707F43802C7F9F80C67FCF80A67F38
:103A60006C804C7F3B806B7F9F8097807C7F9680B3
:103A7000837F9680A27F87807A7F5480697F74805D
:103A8000867F9C80807F8380777F90808680827F06
:103A90007780657F50802C80787FC480DD7FA9800F
:103AA0008E7F6480457F5D807C80887F8080807F82
:103AB0009C80997F9B80A97F757F6E80547F7080EA
:103AC000907F9180A780827F7B806F7F77808080CE
:103AD0007D7F8480567F2A80517FBC80CA80D17FC1
:103AE0009080667F43803980737F8F80817F918053
:103AF0009A80927FB6808C7F9A805F7F55806C80A1
:103B00008B7FAE80A08092806F7F61806D7F75809B
:103B10007B80377F4780977FB080D97FA880828065
:103B2000417F2B805280847F86809B808F7FA18005
:103B3000A67F9780957F59805480567F7A80897FB1
:103B40008E80947F80807B7F7D80827F86806B806B
:103B50005A7F2D80527FAA80D07FB580947F868047
:103B6000567F5080687F8C807C7F76808F7F9880A6
:103B7000B180AF7F948075804A7F5F80787F958029
:103B80009780847F8B8075808280738057803E8091
:103B9000337F7C80B57FCF80C47F9380757F4F80DB
:103BA000547F6E806F8071807D7F9680B77FB480F8
:103BB000A280847F5D805F7F67808D808E7F89801B
:103BC000887F7F80757F6A804C7F2580707FB08082
:103BD000CB7FAF808C7F9080597F5F807B7F7680AA
:103BE0007880627F8D80A97FAA80B77F9580737F60
:103BF000498057807D7F8580917F9A80947F7580F2
:103C000071807B805C7F3080637FAE80B8809B7FDB
:103C10009880917F6B80637F7E8086805F7F6080ED
:103C2000787F9F80A37FB280B77F7F805D7F5F803A
:103C3000767F7380717F898092807C8070806B7FBB
:103C400055804E808180B280A57F83808280858070
:103C50007A807D80877F74805B7F64808D7FAA807F
:103C6000AA7FA1808A80727F6480757F80807B803C
:103C7000727F7F808C7F8480867F8D806F7F3D8088
:103C8000557FA280B07F8A80807F8380737F6D8024
:103C90008980957F7580617F7980957F98809880F5
:103CA000A37F95807C7F7780837F7A806A7F718015
:103CB000817F86807C7F6C80527F4B806A7F98807A
:103CC000AD809E7F89807B7F7D80817F80807C7FAF
:103CD0006C80627F7580937FA0809E7F98808B7FB1
:103CE0007980767F80807E7F7C807C7F797F758005
:103CF0006A7F5980537F6E80947F9F80967F9080EB
:103D00008C8082807D80858082807280677F7580D4
:103D1000817F8680917F9A809180867F83807F7F5C
:103D200083807F7F7E807D7F7880747F76806980CE
:103D3000617F73808B7F8C7F8180857F8680807F91
:103D400080808B8089807A7F6E80747F8080887F7E
:103D500093809A7F8F808280807F7C807A80827F30
:103D60008980887F7C8072806F806B7F6C807C7F95
:103D70008580807F7580737F8280887F88808B7F3D
:103D80008B80807F7C80847F87808280807F83801F
:103D9000827F8180857F8A8081807F7F8080807F15
:103DA0007D80787F7C807C7F77807380787F7E8049
:103DB0008080797F78807A7F7A807C7F8280877F1D
:103DC0008380807F8080857F8580827F8180807FE7
:103DD0007F80847F8680847F8380827F7C807C7FDD
:103DE0007E80807F82808180827F7D807A7F7C80E0
:103DF0007C807D7F7E8079807C7F7C807D7F7F80E2
:103E0000837F8480827F8580867F85808280837F98
:103E10008280817F8180817F7F80867F8080787FA4
:103E20008180847F8080838081807F7F8080817F8C
:103E300080807D7F7A807A80768077807C7F7E80AC
:103E4000807F7F807E807C807F807F80837F80807A
:103E50007A8079807D7F7F807F7F7F807E807F807A
:103E60007E807F80827F8B808C7F86807E7F7F803C
:103E70007F7F847F84807F7F7E807D7F8080818044
:103E80007F807E807D807C80798079807C7F7C8053
:103E90007E7F7F80817F7F80817F83808380827F20
:103EA00082808380818081808380817F81807E7F0A
:103EB0007D807F80847F8A80897F86808180827FE9
:103EC0007F807F80857F7F807A7F7E807C7F7E8001
:103ED0007C7F7F807C80787F7A80797F8080827F02
:103EE00080807C807E7F7F80807F81807F7F7B80E1
:103EF0007F80818084808580837F83807D7F7F80B9
:103F00007D80807F7E807E7F7F80817F8180827FB9
:103F1000808083807E807F7F81807C807B807B7FB0
:103F20007D807B7F7C807F7F7B807C7F7E807A80B2
:103F30007E80827F80807F7F8A808180797F7E8083
:103F40008680847F7980657F6780797F8580847FA4
:103F50008380797F7D809980927F7F8086808A7F31
:103F600087809A808C7F70805F7F7080767F7F8073
:103F70007E7F6980787F8E80847F8B80927F808037
:103F800087807B807380718077806F807B7F8A8061
:103F9000827F76808C808D7F8780857F798081800D
:103FA0008D808B807D80797F8480877F87807F7FF5
:103FB00075808180728075807C7F85807D7F768032
:103FC0008D80A37F92807F80717F76807B7F7680DB
:103FD0007A7F7280867F7F80867F828083808680E2
:103FE0007C80787F8180887F7D807F80887F9180C2
:103FF000777F79807E7F83807C7F6C806F7F8380FA
:104000008C80837F898089808F7F85807C7F74808E
:104010007A7F75806F7F81808B80897F8080817FB0
:1040200087808C7F8480767F7A808B7F7F807F7F84
:104030008580857F7E807B7F7B807C7F8980717F90
:104040006D807D7F8780807F8480897F8A80868065
:10405000737F72807A7F858073807B7F86808C7F80
:104060008680807F7E807F7F7F80707F8480898054
:10407000837F76807C7F87808D807F7F6E80748059
:104080007F807B80737F798081808480828088803C
:10409000868087807680737F7D807A7F7780787F47
:1040A0008480878084807C7F83808A808080738006
:1040B000777F7F8081807E807980807F8780837F0B
:1040C00078808480807F74806F7F7C80897F85800A
:1040D0008580817F8B80877F7E80757F7480787FED
:1040E0007D807D8084808C7F83807D7F7F80877FC3
:1040F00081807A80757F7C807E7F7F807C7F8280DC
:10410000897F7E807F807F7F7F807B7F7980797FC2
:104110008080858085808480868081807C80798095
:1041200079807B7F7780787F7B808A7F8B8081809E
:10413000847F84807C80798077807C7F7C807A7F9C
:104140007B80857F8980827F7F807F7F847F818065
:104150007B7F7A807E80827F8480847F8480827F60
:1041600080807680797F8280817F7B80847F8A8057
:104170008880837F7E807D807E7F7C80767F7C8050
:104180007E7F7A80797F7E80817F8A808780818030
:1041900080807B7F7B80797F8180847F8280837F2A
:1041A0008580877F83807D7F7A807D7F7C80787F1C
:1041B0008080847F8180817F8080827F80807B7F00
:1041C00077807B807F7F8180817F818086808480F3
:1041D000817F7D807D807C7F7A807B7F80808680F0
:1041E0008A80837F838085807B7F7580777F7B80DB
:1041F0007C808280817F8380897F84807F7F8080B4
:1042000081807C7F7B807A8079807E807F807F7FC9
:104210008380827F7F80807F8280827F8180807F99
:104220007C807F7F83807E7F808080807F7F7D8099
:104230007E7F7D807C7F80807F7F8280877F838080
:104240007E80807F82807E7F7C807F7F8180837F75
:1042500082808080847F8680827F7D80797F788065
:10426000797F79807A7F7F80827F818081807F8063
:10427000827F81807A7F78807C80817F7F807F7F52
:104280008480857F8480827F7E8081807F7F7E8026
:10429000807F7F807F808180807F7F80827F818020
:1042A0007C807B7F7A80777F7980817F828083802A
:1042B0008480827F7F807D7F7C807C7F7D807F7F0C
:1042C0007F80837F8780847F83807F80807F7E80E4
:1042D0007C7F7B807E807F7F7E80837F84808280E6
:1042E000817F80807E7F7F807E7F7E807E7F8280D8
:1042F0008480847F82807E7F7F807E7F7C807D7FC4
:104300007E80817F8280827F7F80827F83807F80AA
:104310007F7F7C807C807B807C80807F83808380AB
:104320008180817F8380807F7D807F807D7F7E8094
:10433000817F83808480848083808380807F7B8072
:104340007B7F7B807D7F7E7F7F8082808380848077
:1043500080807C7F7B80787F79807C807E80817F7D
:104360008680827F8080847F82807F7F7D807F7F48
:104370007E807F7F7F80817F8480847F7F807F803D
:10438000807F7E807C7F7C807D807E807E7F808041
:10439000817F8080817F7F80807F808080807F7F21
:1043A0007B807D7F7F80818082808380807F808012
:1043B0008080818080807E7F7E80817F8280817FFF
:1043C0008380808080807F807E807E807D7F7F80F4
:1043D000807F848086808480848081807D7F7B80D4
:1043E0007D7F7C807E7F81808280838084808380CB
:1043F00080807E807C7F7A807B7F7C7F7D80807FD9
:104400008180837F8380807F7E807D7F7D807E80B2
:104410007F7F80808480847F8180818080807E8097
:104420007F7F7D807E80807F81807F807E7F808097
:10443000817F7F80807F80807F7F7C807D7F7E808A
:104440007E7F8080807F8280817F8180817F80806D
:10445000817F7F807E7F7F807F7F7F807E7F828065
:10446000837F818080807F7F7D807D80807F7F8053
:10447000807F828081807E807E7F7C807C807E7F4A
:104480007F80807F8280807F83808280817F7F8029
:10449000807F7F807E807E7F7D808080807F818026
:1044A000807F8180807F7F807D7F7D807D7F808019
:1044B0008280817F8180807F7F80807F82808180F9
:1044C000807F7F807F7F7C807E7F828083808180F1
:1044D000818081807D807D807E807C807B7F7F80ED
:1044E000837F8280827F82807F7F8180807F7B80CC
:1044F000797F7F807F7F7E80807F8280837F837FC4
:1045000080807C7F7E807E7F7E807D7F7F80817FBC
:1045100082807F7F7E807D7F7C807B807E7F7C80B1
:104520007B7F81808580817F7F80807F7D80807F91
:104530008280807F7D80807F80807D7F8280857F7C
:104540008380817F80807F7F7D80827F81807F806C
:104550007F808080817F8180827F80807E7F7E805F
:104560007F807F7F7E807E7F7D807E7F8280827F56
:1045700080807E7F80807D7F7D807D807E7F7E804D
:10458000817F8380807F7E807D7F80807F7F7E8033
:104590007B807A807F80827F8080827F7C80828027
:1045A0007F7F868080807C7F80807C7F8380817F0E
:1045B00087807E7F7F80817F797F78807D7F7C8010
:1045C0008280817F82807D7F7F807F7F84808B7FE0
:1045D0008180837F75807D7F7D80867F9180857FD0
:1045E0007F8073806F7F7880807F8A808E808C7FD1
:1045F00084807B7F838079807B7F7D80787F7A80D9
:1046000078807B7F7A80837F8480867F88808880A3
:104610008A7F838082807C7F7E80807F7B80838096
:104620008780817F7E80727F7B807B80817F878097
:104630008380887F7D80817F76807C80817F888079
:10464000917F898085807D80777F7880837F7F8060
:104650007C7F7A7F7780747F76807C7F8780817F84
:104660007B80827F8280777F868080808F7F8F8033
:104670007780897F798082808180817F8D808A7F29
:1046800084807A807F7F76807D808A7F8C80887F1F
:104690007480737F6C80827F8080937F8A80857F27
:1046A00071806980707F65806C7F648074805F80BA
:1046B0007D7F6C80867FAC80E47FEE80ED80DE8045
:1046C000CE7FC980A380817F6B804E80277F2D8025
:1046D00029804D7F3D806D7F6B804C7F3F80578070
:1046E000557F47801D7F3280837F7680937FCA808D
:1046F000D87FEA80D77FB580D87FC580B17FB5806D
:10470000B17F8080677F5080807F94808D807C7FA8
:104710006C80607F4F8025802F7F5F80377F528045
:104720005F7F578048804E807E7FA880C07FCB808F
:10473000BD7F8F807D808F7F73806B7F54807E8074
:104740007E7F8E80DC80EA7FE180D580C57F9B8084
:10475000837F618064802B804E7F4F802A7F4F80D3
:104760004D80487F20804880737FA280A47F9880FE
:10477000A68090808B8072809A80AB80B980BF8049
:104780009980A080A6809C7FB280AF7FD4809B7FE1
:104790006B807A806980467F30804080658076803B
:1047A0006480707F51804C80437F81807B7FA780B5
:1047B0007080457F5880697F9480AE7F9E80A07F07
:1047C000B5807F80A57FB180B97FA4809780757FF9
:1047D0009F80AC80717F77808B7F5C80597F668003
:1047E000787F6D80687F3D804B7F6D80417F5080FA
:1047F000577F77807080647F66808B80817F758033
:10480000A480A880827F6D80797F9C809C7FB88007
:10481000CD7FB980A47F9E7F6680897F8A807480E7
:10482000778080806C803E7F4A8034804F7F5980C3
:10483000707F6A80717F7F8069805A7F5E80657F2C
:1048400090808780A37FAB80977FA680D67FAE8045
:10485000A180917F6980737F7280687F51807E7FA5
:104860008280927F80808C8044803F7F5280697FED
:1048700081809580947F9080A17F63805C804A7F57
:1048800053806B7F60807180807F7880927F93807F
:10489000A48087808980837F75807C7FA480BB7F94
:1048A000AA80BD7FA2808E80808082805D80607FB4
:1048B00063806A7F7D80837F89804B806880687F8A
:1048C00065806D7F63805C7F67806D7F7C80847F87
:1048D00075806C805A7F82808C7FAA808A80AD80B0
:1048E000AF7F9880AE7FC280B67F817F7380697F03
:1048F0005F806F80907F84808C7F7780647F57801B
:104900005E80567F48804C7F5B80757F8780868085
:10491000877F94808E7F9F80A77F93809980B67FCA
:10492000A3807B7F8580867F91809F7F9B808C7F0B
:104930007E80787F8780807F5F805D7F4880508029
:1049400060806C7F79808E7F75806C7F5B805D7FFF
:104950007880717F7580877F93808B7F8C808A7F42
:104960008980877F9A808F7FA1809F7F8F809E80A4
:1049700085807F806B805980817F87807A80837F6C
:104980009080707F6280848097809680A2807880FB
:10499000567F6A806C7F7880747F8480787F6C809B
:1049A0007D808C808B8085807280747F6A80788027
:1049B000847F9780A07F87809280797F7C809B7F97
:1049C0009480897FA3808280757F78807C806580D9
:1049D0005C7F6D80687F8580847F67806A7F63806D
:1049E000527F6980797F8780847F7D80937FAE80CE
:1049F000A57F9B808A80907F9080947F89809B7F19
:104A0000A880787F7D80727F81808E7F9480947F64
:104A100078806A7F59803C7F42806A7F5C806B7FB0
:104A200093808880787F7B80757F7C809B7F80806F
:104A3000847FA3809580947F80808380727F69804B
:104A40007E7F9080A77FA5809D80697F60804F7F5B
:104A50003E805B7F70808B7F8780827F76806E7FD9
:104A60007E8089808180927F9480817F9B80977FE8
:104A70008F808B7F7080637F728083809B7FAA8012
:104A8000A27F99807E7F6D7F5E80547F6780667F86
:104A90007280987FA880A880917F787F7280857FC0
:104AA00084808980987F8680647F6180787F83801E
:104AB000847F83807F7F7C80877F8580757F628015
:104AC000528049807080837F8E80AD7F8F807F8011
:104AD000887F8F80AA7FB280A280887F79808C7F38
:104AE0006E806C80758078807180737F7B80827F20
:104AF00083807E7F88806E7F66804A7F3F80528081
:104B00006080857FAB809D7FAF809F7F8E7F8A8016
:104B1000987FA4809D80A2808F7F7D806B7F6D8039
:104B2000737F7880937F928087808B807E80857F63
:104B300071807B8055804E804D7F46806D808D805A
:104B40008A809C7FA580947F8C80857F8180678010
:104B5000767F7F80857F7D808D7F7980737F7F806A
:104B600084809480967F99808E7F8080797F568024
:104B700049804B804B7F7280987F988094809B8087
:104B8000917F8B808E80877F6F80817F7E80737F17
:104B900069808E80877F8080A37FA3809B7F8B80AE
:104BA0008D807C7F7F80867F7380717F78805A8044
:104BB0006A7F87808C7F9A80987F8A80797F7E80C9
:104BC0007780787F8680727F63805F7F7580778053
:104BD00075809080947F91808F7F87807B7F6B80B2
:104BE0005A7F488054807B7F67807F7F9D80977F3E
:104BF00092809680977F8D80917F81807C7F8C8052
:104C0000837F6E80727F6C80707F73809A7FA280BA
:104C1000A17FB5808E7F73805F806980557F5980CA
:104C2000767F5D806C7F96809B7F9F80AC80997F34
:104C3000817F73807F7F7980917F8F807B80787F79
:104C400072807D807E8096809A7F7A80797F7D8059
:104C50007F80807F7E806A7F4680587F4F7F57802D
:104C6000847F8B809480AF80A5808980837F8C80B7
:104C7000757F7C80907F7980767F71806C80797F72
:104C80009380A67F9580997F9980807F7E80827FA8
:104C90007C8059805F7F5B804A7F6C808C80927FB4
:104CA000AA80AE7F9A80857F8B80777F6880787FAF
:104CB0006B80757F7C807B7F7F80877F94808D7FFA
:104CC00091809B808A7F8F8089807E805C805C80E1
:104CD0006F80557F65808B7F8B808E7F927F8880F1
:104CE000777F8B80977F8080917F77805B806A7FE2
:104CF0007880787F7A808D7F9380837F94808A7F8D
:104D00008280817F7C806C805A7F72806080587F37
:104D100082808E80937FA8809C7F8980867F908010
:104D2000757F78808C7F6F80747F86807B7F7780B3
:104D3000747F89808E7FA280A87F92808D80767F0D
:104D400065804E7F57805C80547F76809A808F7F0D
:104D50009E809E7F9880967F9C8088806A807880E5
:104D600071806D7F82807C7F7580847F84807A8073
:104D70007A808F8084808D808D7F7880617F548061
:104D8000587F47804E8070808180A480B8809F7F4C
:104D90008D80907F8E80807F9580897F7280777FE5
:104DA0007C80757F8580927F8D808E7F93808F7FC2
:104DB00087808D807C8078805F80587F55804F8091
:104DC000788089809880A77FAB80967F9080917F44
:104DD0007E8077808180798075807F7F7D807A7FFB
:104DE0008080887F8680967F9A80917F8480797F7B
:104DF00064804F7F4180497F4C80607F8680917FB7
:104E000098809C7F9380877F8D808C7F8180857F39
:104E100082806E7F7080727F7D808880937F8F809C
:104E2000937F9D80977F93808580807F7180597F5D
:104E30005A7F5C805C7F7E8087808F7F9E809B8096
:104E40008E7F84808F7F83808D7F8E807A7F83802A
:104E500079806F7F73807C80807F84808D7F8E805F
:104E6000907F91808B7F7C805F7F5680607F5880B1
:104E7000707F8380817F95809C7F9280857F8D80ED
:104E8000837F7180777F7A807D7F8580837F80803C
:104E9000837F7B8078807D7F8B808B7F8C808C7FF5
:104EA0008580777F608067805D7F64807C7F848081
:104EB000967F9E80A07F9680967F8D80767F7A8079
:104EC000787F78808C7F8F808D7F8480717F6C80ED
:104ED0006B80807F8A80957F918086807A7F5E80DC
:104EE000627F56804C7F6C807C80837F9680A27F1F
:104EF000A4809C7F97808A7F7D807180687F72808C
:104F00007C7F7A80877F8B808C7F898087807B7F86
:104F10007880827F7F80767F6B80697F65805D7F10
:104F20005F80767F6F80877F94809D7F9E80A07F4B
:104F30009A80847F8580777F7A807D7F7C7F7D806B
:104F4000817F82808B7F918091808A7F86807B7F2A
:104F50007A8072806D7F74806C7F65806A7F6F7FDE
:104F60007580817F807F9680987F9380877F7E8009
:104F7000747F6F80797F7B7F86808B7F8580768052
:104F80007B807D7F8280877F90808880807F778014
:104F90006E7F6F806A7F74806F7F70807F7F8D806F
:104FA000828088808B7F81807B8084807F80737FFC
:104FB0007E80847F89808B7F8D80897F8B808080BD
:104FC0007E7F7A807D808780897F8880807F8780D0
:104FD0007E7F7D80837F7A80797F7E807D807C7FED
:104FE0007B80777F78807D7F7880827F86807C7FE2
:104FF0007B807B80767F7880837F8280817F7C80CE
:105000007B80747F75807E7F87807F807D7F8080BE
:105010007A7F7D807B807D8082808980888084808B
:105020008380767F7180787F7C80848087807F809A
:105030007E807D8077807B80838081807C7F818083
:105040008280887F8C808E7F8E808F80867F858017
:105050008380808088808280897F86807F7F79803E
:105060007680737F7680807F7E80817F8780857F5A
:10507000807F7D80747F7780797F7B808280828053
:10508000858082807D7F7980797F857F8580877F1D
:105090008480807F7E807B7F7A807A7F81807C8025
:1050A0007B7F7A80777F7A8082808680858084800B
:1050B00080807D80808086808280838083807F80E6
:1050C0007F7F8480817F8080857F84808380837FD1
:1050D00084808580827F7F807E807C7F7F807D7FD3
:1050E0008180837F7F80847F8580817F7C807B80BF
:1050F000787F78807C7F7B807A807B7F7D808380D7
:10510000837F82807F7F7A80787F788078807B80C1
:10511000827F8680847F8880837F7F808780828073
:105120007E807C7F7F807C7F8080857F8580827F82
:105130007A807C7F79807B7F7D807E807C7F83808E
:1051400084808680817F7C807C7F7B80817F818062
:105150007F807E8083808780878089808A8081802D
:105160007980797F7D807E7F88808D808A7F868030
:105170007C7F7780727F77807A80817F8580847F53
:105180007980787F7880777F7D807F7F8380827F42
:105190007D80747F7D807D807D7F7B807F7F7B8035
:1051A0007B7F7B80828089808A808880847F8580E5
:1051B00080807F7F7A807F7F7F80807F7D80857FFA
:1051C0008580847F8580837F82808180817F7F80CE
:1051D000807F79807A80787F7C80817F8680827FE3
:1051E0008580817F7E807B7F7B807C7F7F80837FCB
:1051F0007D807E7F7C807F7F8080857F86808780AA
:10520000877F84807F7F7D808280877F8A80837F85
:105210007D80768078807A807D807D807F807C80B4
:1052200078807B807D807E7F7C80797F7880767FB0
:1052300077807D7F7A80817F8080847F89808A806B
:10524000807F7C807C7F8080867F7F80817F808064
:10525000857F8680867F8380837F7F807E807C8041
:105260007E808280837F8580837F8380827F85802C
:10527000868082807B7F7780797F7D807F7F828040
:105280007F7F7C80777F7480737F79808480837F49
:1052900085807E7F7A807680767F7E807E7F838029
:1052A000867F8680827F8580857F8280827F8080E6
:1052B0007F7F7F808380827F7E807F7F81807D7FF4
:1052C0007F807D7F7C807E80847F8580867F8280DA
:1052D000857F7E807D7F7D807C7F7B807A7F8280E2
:1052E0007E7F86808380897F8480827F7F807B7FB2
:1052F00080807D807E7F78807D807D80847F8780B8
:10530000837F7C807C7F7B807D7F81808080857FA8
:105310008780817F7F807E7F7D807B7F7E8086808F
:10532000837F84807E807C80767F7C807F7F7E8090
:105330007D7F7D7F7E807A808180808080807E7F7F
:105340007A80797F7D80807F837F8480837F7C806B
:105350007A7F7F80817F7D80807F8080827F868052
:10536000868085807F8082807B80808081807E7F38
:105370007B807E7F8180817F8680827F86807F8028
:105380007F7F7F807E7F8080827F8180857F83801A
:105390007E7F7C807D807F7F7D80807F7F80807F1F
:1053A0008280807F757F7680788081808080848015
:1053B000807F7A807B7F8180817F7B80837F7E80FE
:1053C000807F79807D807E80807F8580837F7D80E7
:1053D0007A807D7F78807D7F81808480837F8A80D2
:1053E0008980867F81807B7F7F80857F8980867FA3
:1053F0008580807F7F807F80837F8080817F7F80AA
:105400007E7F7D808280817F83808A7F8980857F87
:105410007C807B80747F7480737F7780787F8180CD
:105420008280817F7D807B7F808081807F7F7C8088
:105430007B7F7A80837F7D807B807B7F81807F7F85
:1054400083807F80807F81807D7F80807F7F84805C
:10545000857F87807F8083807F8081808280848039
:1054600085807D807A807B80818084808980878030
:105470008980897F81807C7F7F807F807F7F808023
:105480007F7F7E7F7C80797F7B807C807E7F7E803B
:10549000817F83807A7F7B807C7F8180847F838013
:1054A0007E7F7D7F7B80767F7A807C80807F7E8020
:1054B0008280817F81807C7F7E807E7F7B807A7FFF
:1054C0007B808180847F8180817F8480857F8580CF
:1054D000817F8280817F83807F7F8380837F8380C1
:1054E00080807D7F80807B807F7F7F80887F8580BC
:1054F0008680847F7F807E807780778077807E7FC4
:105500008380817F807F7F807E7F80807F7F82809D
:10551000807F7D807B7F7B807B80807F8280847F9B
:10552000837F81807D7F7A807D7F75807A7F7A809E
:10553000807F81807F7F81807B7F7F807C7F828076
:105540008680857F82807D7F7E807B7F7C807D8062
:105550007C807D7F7D807A7F7D8083807E807D8062
:105560007D807D807D7F7F80857F8480867F818038
:10557000807F80807F7F817F8080847F8580887F1F
:10558000857F8580817F7E807D7F797F7F807F7F23
:1055900080808180847F8280827F8480827F8180FE
:1055A0007C7F7E807D807F80807F7D807C7F7C8013
:1055B0007E807E8081807F807C7F7D80787F7A8006
:1055C0007B7F7B8079807E7F7E8079807F808080FA
:1055D0008280827F7D807C807A807C8081808280D6
:1055E000837F7F80807F7F807E7F8080837F7E80BF
:1055F0008680867F8180827F7A80807F7D80817FA8
:105600008180827F8180827F8B80867F8380817F83
:105610007E80787F7F807F807D7F81807F7F7E809E
:105620007C807E7F8380837F84808680857F7F806F
:105630007D80827F79807C7F81807E7F7E80868076
:1056400080808180867F7B8081807880817F7E8062
:10565000847F7E807C7F7080707F7B808780977F57
:105660008A80827F7880797F7580917F8480827F35
:105670007D80707F6C807D80867F858098808A7F2A
:105680007B807F7F8280887F8C80897F8980798002
:105690007C7F7880867F8A80877F8C807D7F728008
:1056A0007E7F82808E80887F7C80717F6F80747F18
:1056B0006F80837F768082809780897F7D80917FD5
:1056C00074805C807B7F86808B80A080BF7F9C8085
:1056D0007C7F7C80627F6B808680957FB680A97F8F
:1056E00093807A7F42804480527F7B809C80AD8013
:1056F000B37F9E80757F5980567F6780947FA3809B
:10570000B47FAB80797F4F80427F4780797F9D80D7
:10571000B380CD80B57F71805A7F5F805980757F5F
:105720009F80AC7F9980877F6080567F5580717F96
:105730009580B480B87FA280887F62805F7F5E8022
:10574000827F9180AC7F9D80857F6480507F548074
:10575000647F82809F80B380A27F9680717F61800A
:10576000407F6680827FA780AB80A77F9A80757F0D
:1057700052805F80847F85809F80847F76805E807A
:105780005F7F5F80647F65806A7F6B80777F7280D8
:105790008380807F7580797F7A808F809D7FAF80C6
:1057A000A4809B80907F9A808E7FA080A97F9A8022
:1057B000917F9880897F7B808A80A07FA980C37F2A
:1057C000B780937F8980607F4780487F6A806C7F45
:1057D0007A806E805E7F54805B7F59805680607FC8
:1057E0004F803F80367F3D80417F6880727F82801E
:1057F000787F6E80567F56805680697F888095803E
:10580000B47FA280A87F9C809B7F9680A47F9E808F
:105810008C7F7B806E807B8073807180997FBC8061
:10582000BC809F80AD809780817F7480597F61802C
:105830006C7F8380667F6E80537F5380647F7E8021
:105840007D7F67804B7F4A805C8059806B807E8043
:10585000917F9080827F5C8055804D7F60805F80EB
:10586000877FB280B17F96808B808480787F8580AF
:105870009C7F9B80557F4180607F7A807980A98062
:10588000D47FCF80C57FA080907F87808F7FA380CB
:10589000AE7FB780A67FA780A080797F8480938029
:1058A0007B7F6A80587F397F1D80307F55808A7F5B
:1058B0009D809380977FA4808D7F5C7F59806B7FD4
:1058C00070806A7F6780757F8880637F6780737F61
:1058D0009D80C57F99803C800E7F50806D7FA98020
:1058E000C67FAD80C080B88097806480567F8680F8
:1058F000A67F8A80627F938087807D80B780B78013
:10590000C97FA6807C7F7D80657F3C803A7F3A801E
:105910009080BB7FA2808880817FA0805780717F2C
:10592000A180997F6180477F7F8063807080AE7F98
:1059300094808B7F7580547F3B80318020802E80C7
:1059400043806A7FBD80DB80CE7FAE80B77F96804C
:10595000917F6A8074807F7F4B806F7F8980927F88
:10596000BF80CF7FB1808E7F77806E7F79805980B6
:10597000637F6980587F8380C07FEB80A27F7780C0
:10598000577F51802D8042804E7F6680AF7F8F8011
:105990008180AA7FCA80897F6A806380417F34804A
:1059A000477F3280397F7C809F80B080CD80D180DE
:1059B0009A80697F64805D7F727F7A807D7FB2800C
:1059C000D47FD17FCB80CC7FA980917F84806C8075
:1059D00051806A8077806C80737FB080DE7FE38047
:1059E000DC7FB6808B7F45802E802B7F3C80797F4B
:1059F000B080A97F9F809B7F8B805D804880528094
:105A0000367F3880667F75805B80647F9280BA7F46
:105A1000BF80C67FA8807080457F4F80747F8B8059
:105A2000BE80D17FC980C480A87F9E8082806A7F2B
:105A30005780407F5D806980577F6680937F8E802E
:105A4000A07F9980827F5580337F1680157F51809B
:105A5000667F8F80907F9B80837F6C8063803E7F9A
:105A60003580337F42804C7F5B805080537F6A80DB
:105A70007D7F9E80987F8680637F5F80507F54808B
:105A8000967FB480D77FCF80D480B97FA3809D7F5D
:105A90008D808B7F8B808C8093808F7F8780A07F91
:105AA000AC80D680D27FC980A58077806C80657FEE
:105AB0009080AE7FC780D67FB280947F6680637F00
:105AC000567F4080477F44804C804C7F4B80427F94
:105AD0005C80737F90808B7F74804E7F2D80277FCA
